:020000040000FA
:0400000008EF00F015
:020004000000FA
:0800080069EF00F033EF00F096
:10001000D388D39AD38C0F01806A896A926A386B2D
:100020000F01816A8A6A936A396B0F01826A8B6A4F
:10003000946A3A6B0F01836A8C6A956A3B6BF26A29
:10004000F28CF28EF2889E9A9E989D9A9D98006AF4
:10005000AC8AAC84AB8EAB88190EAF6EB06AB89622
:10006000948C948E0980F28EF28C9E9A9D8A9E9832
:100070009D980F0E0C6EFF0E0B6EFF0E0A6E0A2E71
:100080003FEF00F00B2E3DEF00F00C2E3BEF00F0A9
:1000900012009D9AAE5009A050EF00F056EF00F00C
:1000A0009E9A9D8AF28EF28C33EF00F09D9A9E9874
:1000B000AD6EACA259EF00F09D8A9E981000AB98EF
:1000C000AB8808801200AE5008801200086AAE6A41
:1000D00010009D9A9EBA49EC00F0ABB2F0D7ABB4D9
:0800E000F2D708B0F3D71200BB
:020000040030CA
:0100010028D6
:010003003CC0
:010006008574
:00000001FF
