:020000040000FA
:0400000008EF00F015
:020004000000FA
:080008007DEF00F03BEF00F07A
:10001000D388D39AD38C0F01806A896A926A386B2D
:100020000F01816A8A6A936A396B0F01826A8B6A4F
:10003000946A3A6B0F01836A8C6A956A3B6BF26A29
:10004000F28CF28EF2889E9A9E989D9A9D98006AF4
:10005000AC8AAC84AB8EAB88190EAF6EB06AB89622
:10006000948C948E0980080E006E000E000EED6ECA
:10007000EF6236EF00F0F28EF28C9E9A9D8A9E9887
:100080009D983BEF00F00F0E0C6EFF0E0B6EFF0EF7
:100090000A6E0A2E49EF00F00B2E47EF00F00C2EEF
:1000A00045EF00F012009D9A080EE76E070EEF6E06
:1000B000000EEDCFE5FFE76259EF00F0AE50E76EBE
:1000C00009A065EF00F06AEF00F09E9A9D8AF28E1B
:1000D000F28C10009D9A9E98AD6EACA26DEF00F070
:1000E0009D8A9E981000AB98AB8808801200AE5095
:1000F00008801200086AAE6A10009D9A9EBA53ECFE
:1001000000F0ABB2F0D7ABB4F2D708B0F3D7100021
:020000040030CA
:0100010028D6
:010003003CC0
:010006008574
:00000001FF
